:020000040800F2
:1000000048140020DD010008512A00089D16000850
:10001000292A00089D0A0008BD47000800000000CA
:100020000000000000000000000000000533000890
:10003000BF10000800000000292E00081D34000831
:10004000F7010008F7010008F7010008F52F000884
:10005000F7010008F7010008F7010008F7010008A0
:10006000F7010008F7010008F7010008F701000890
:10007000F7010008F7010008F7010008F701000880
:10008000F7010008F7010008F7010008F701000870
:10009000F7010008F7010008F7010008F701000860
:1000A000F7010008F7010008F7010008F701000850
:1000B000C1360008F7010008F7010008F701000841
:1000C000F7010008F7010008F7010008F701000830
:1000D000F7010008F7010008F7010008F701000820
:1000E000F7010008F7010008F7010008F701000810
:1000F000F7010008F7010008F7010008F701000800
:10010000F7010008F701000861380008F70100084E
:10011000BD3D0008F7010008F7010008F7010008DD
:10012000F7010008F7010008F7010008F7010008CF
:1001300000F002F800F042F80AA090E8000C8244B7
:100140008344AAF10107DA4501D100F037F8AFF294
:10015000090EBAE80F0013F0010F18BFFB1A43F0A5
:10016000010318473C7100005C710000103A24BF85
:1001700078C878C1FAD8520724BF30C830C144BF0C
:1001800004680C607047000000230024002500264E
:10019000103A28BF78C1FBD8520728BF30C148BFEA
:1001A0000B607047642900F08580732900F0AD82F0
:1001B000002070471FB51FBD10B510BD00F0F2FA4A
:1001C0001146FFF7F7FF04F0F9FF00F010FB03B44E
:1001D000FFF7F2FF03BC04F01CFE00000948804753
:1001E00009480047FEE7FEE7FEE7FEE7FEE7FEE719
:1001F000FEE7FEE7FEE7FEE704480549054A064B31
:100200007047000021340008310100084802002036
:1002100048140020480400204804002070470000D3
:100220000FB4044910B503AA029800F073FA10BC89
:100230005DF814FB500000200FB41CB5074B06AA54
:100240007B4469460090059800F035FA0020694625
:1002500000F044FA1CBC5DF814FB00009904000097
:1002600070B50C460546012A05D02878800600D5D1
:10027000EA69002302E0012305E05B1C934202D2FD
:10028000E05C0028F9D1A869E618C01AA861286ABC
:10029000184428622846AFF3008004E0D5E9012124
:1002A00014F8010B9047B442F8D32846AFF300800E
:1002B00070BD00002DE9F041064600241068752944
:1002C000314616A510D0AFF30080002802DA404274
:1002D00013A507E031688A0701D512A502E0490796
:1002E00004D511A5012401E0AFF3008000210A220A
:1002F00006F1240709E0B0FBF2FCB0FBF2F302FBCD
:100300001C00303078541846491C0028F3D123468D
:100310002A463046BDE8F04100F06FB90000000009
:100320002D0000002B000000200000002DE9F05FF0
:10033000894604464FF0000ADFF824B1FB44C0F8B8
:1003400020A02046E168884700287DD0252806D0D7
:10035000D4E901219047206A401C2062F1E7002582
:100360005F462046E16888472028064607DB312E95
:1003700005D2B81910F8200C08B10543F1E7A80719
:1003800001D525F00405C4F81CA00027C4F818A066
:100390002A2E09D0304604F035FD38B304EB870827
:1003A000303EC8F8186019E059F8041B204604EBE9
:1003B00087029161E1688847012F064618D1E069FC
:1003C000002820DA25F020051DE0D8F8180000EB01
:1003D000800006EB40003038C8F818002046E1687D
:1003E0008847064604F00EFD0028EED1012F0AD002
:1003F0002E2E08D12046E16888477F1C0646022F32
:1004000045F02005C4DBA069002803DA404245F02E
:100410000105A061E80701D025F01005A6B1A6F1FD
:100420004100192802D8203645F400654A46314675
:10043000204625604D46FFF7B5FE60B1012807D084
:10044000ED1D25F0070000E007E000F1080978E75E
:1004500005F1040975E730467AE7206ABDE8F09FA8
:10046000A96E000030B505460B462A4613F8014B2D
:1004700012F8010B08B1A042F8D01CB1002802D03C
:100480006D1CF1E7284630BD10B5431C02E010F8A2
:10049000011B71B18107FAD14FF0013202C88C1AE9
:1004A0008C4314EAC211F9D0C01A0A0603D0C01E48
:1004B00010BDC01A10BD0A0401D0801E10BD090273
:1004C000FCD0401E10BD032A40F2308010F0030C17
:1004D00000F0158011F8013BBCF1020F624498BF97
:1004E00011F801CB00F8013B38BF11F8013BA2F134
:1004F000040298BF00F801CB38BF00F8013B11F0AF
:10050000030300F01981083AC0F0088051F8043B59
:10051000083A51F804CBA0E80810F5E7121D5CBFBB
:1005200051F8043B40F8043BAFF30080D20724BFEE
:1005300011F8013B11F801CB48BF11F8012B24BF82
:1005400000F8013B00F801CB48BF00F8012B7047D1
:1005500002F0FF0343EA032242EA024200F002B83B
:100560004FF000020429C0F0128010F0030C00F0DC
:100570001B80CCF1040CBCF1020F18BF00F8012B5A
:10058000A8BF20F8022BA1EB0C0100F00DB85FEA28
:10059000C17C24BF00F8012B00F8012B48BF00F8F4
:1005A000012B70474FF0000200B513469446964663
:1005B000203922BFA0E80C50A0E80C50B1F1200176
:1005C000BFF4F7AF090728BFA0E80C5048BF0CC024
:1005D0005DF804EB890028BF40F8042B08BF704782
:1005E00048BF20F8022B11F0804F18BF00F8012BF4
:1005F000704770477047704770472DE9F0470D46C8
:1006000099469246044600F124080168880604D5FC
:10061000E06921F01001216000E00120A84201DD25
:10062000471B00E00027A1697A1902EB0900081AAC
:10063000A0612078C00602D42046AFF300800026D7
:1006400008E0D4E901211AF806009047206A401C0E
:10065000761C20624E45F4DB2078C0060AD5204681
:10066000AFF3008006E0D4E9012130209047206AF2
:10067000401C2062381EA7F10107F4DC07E0D4E932
:10068000012118F805009047206A401C2062281EAE
:10069000A5F10105F3DC2046AFF3008020780006C9
:1006A00002D50220BDE8F0870120FBE701694A1C62
:1006B00002610878704700B58FB0CDE901310021A3
:1006C000059105497944CDE9031011466846FFF7C5
:1006D0002DFE0FB000BD0000E5FFFFFF0A6802F825
:1006E000010B0A60704710B5436913B1AFF3008086
:1006F00001E0FFF7B5FD012010BD127800F12401E3
:100700000A7000224A700122EDE711684FF0FF32B3
:10071000E9E70000074B70B50D467B44FFF7CBFFC0
:100720000446284600F03AF810B14FF0FF3070BD93
:10073000204670BDBF48000010B5203AC0F00B80C5
:10074000B1E81850203AA0E81850B1E81850A0E8D5
:100750001850BFF4F5AF5FEA027C24BFB1E818502F
:10076000A0E8185044BF18C918C0BDE810405FEA9F
:10077000827C24BF51F8043B40F8043B08BF70471B
:10078000D20728BF31F8023B48BF11F8012B28BF20
:1007900020F8023B48BF00F8012B7047007B00F0B7
:1007A00080007047754600F02BF8AE46050069469C
:1007B000534620F00700854618B020B5FFF71CFD12
:1007C000BDE820404FF000064FF000074FF0000852
:1007D0004FF0000B21F00701AC46ACE8C009ACE8D3
:1007E000C009ACE8C009ACE8C0098D46704710B537
:1007F0000446AFF300802046BDE81040FFF7E7BC99
:1008000000487047E401002010B5644802F080F908
:1008100063496248801D00F035FC624890F9000091
:100820001E283BDB01206049087002235F4A6021DB
:10083000042001F007FD5B4890F900005C4991F944
:100840000010884203DD01205A49086002E00020C0
:1008500058490860534890F90000574991F9001031
:10086000884206DA0223554A6021184601F0EAFC64
:1008700093E04C4890F900004D4991F900108842EE
:1008800006DD02234E4A6021184601F0DBFC84E0BD
:100890004CA26021022001F0D5FD7EE000204249FB
:1008A00008703F48007849490870414890F90000B5
:1008B000414991F90010884252DB3A4890F9000012
:1008C0003D4991F90010884204DA01203949091F95
:1008D000086003E000203749091F0860314890F99B
:1008E0000000334991F90010884203DD01203149AD
:1008F000086002E000202F4908602A4890F90000B3
:100900002D4991F90010884206DA02232B4A602112
:10091000184601F097FC13E0224890F900002449A2
:1009200091F90010884206DD0223254A602118460D
:1009300001F088FC04E023A26021022001F082FD86
:1009400020A26021002001F07DFD1EA26021042074
:1009500001F078FD1BA26021062001F073FD1CE070
:100960000020144908601A49C1F888010223194A75
:10097000602101F067FC0223174A6021184601F04C
:1009800061FC0223154A6021042001F05BFC022374
:10099000134A6021062001F055FC10BD2000002004
:1009A0001F0000201C000020270000203A690008DA
:1009B000000000208C01224201000020BA680008DB
:1009C0007A68000820202020000000001E0000207F
:1009D000000022423A6700087A670008BA670008F8
:1009E000FA67000810B50446002C34D004211D48D5
:1009F00000F08DFD012814D01B4800881B49098890
:100A0000401A80B240F29A21884229DD16480088B7
:100A10001649088001201649086016A0FFF700FC5F
:100A20001EE01148008811490988401A80B2B0F5CB
:100A3000A77F15DB0C4800880C49088000200C4972
:100A40000860C82332220221012000F095FD0EA08B
:100A5000FFF7E6FB04E00020034908800349088013
:100A600010BD0000001001404600002028000020BA
:100A700088012242CEC2B6C8CAA7BFD8BEAFB8E668
:100A8000A3A1A3A10D0A0000CEC2B6C8CAA7BFD8B1
:100A9000BEAFB8E6A3A10D0A0000000002A0FFF758
:100AA000BFFB00BFFEE700000D0A4275734661758B
:100AB0006C745F48616E646C6572204552524F528F
:100AC0000D0A000008B5102002230201044900901D
:100AD000042002F0FFFB00200249086008BD00006E
:100AE00000080140A001214230B5AFB00446002506
:100AF0005748007860B10FA9564800F047FB0FA88F
:100B000003F06AFB80210FA8FFF74CFD00F0F8F816
:100B100051480088B0F57A7F78DB00204E49088084
:100B20004E48C07800F00F004C49C97809114B4A73
:100B3000927802F00F02494B9B781B11CDE90232EB
:100B4000CDE904104548407800F00F00434949784A
:100B50000911CDE900104148007800F00F033F482B
:100B6000007802113EA107A8FFF766FB3B48807999
:100B700000F00F01394880790011384A527902F0AB
:100B80000F02364B5B791B11CDE90032CDE9020132
:100B90003248007900F00F0330480079021135A186
:100BA0000DF12700FFF748FB07A93648007836A269
:100BB000CDE900200291374890F9003036A239483B
:100BC00090F9001038A002F017FB054600F098F8E5
:100BD00007A800903748037837A23948017839A030
:100BE00002F0A0FA05463648017838A0FFF718FB56
:100BF00000F086F8294638A0FFF712FB3DB13E48C9
:100C00000078401C40B23C49087003E01DE0002021
:100C100039490870384890F90000062807DD00209F
:100C200035490870012C02D001202FB030BD64B1CD
:100C300032480078401C314908700846007828285E
:100C400003DD002008700120EFE70020EDE7000041
:100C50004A000020E200002044000020060000209E
:100C600025642564256425642D256425642D25646B
:100C700025642000256425643A256425643A2564AA
:100C8000256400001C00002063757272656E745448
:100C9000656D7000010000206C6F7765724C696DA6
:100CA000697400000000002075707065724C696DF9
:100CB0006974000005000020706F77657200000005
:100CC00027000020616C61726D000000616C617230
:100CD0006D3D25640D0A000053455F53656E6453F6
:100CE000656E736F7233204572726F72204E6F2E75
:100CF0002025640D0A0000002A0000202B0000209F
:100D000010B54FF480710448FFF72AFC0020034916
:100D100008800349087010BDE20000204800002050
:100D20004A00002070B500240025002619A20021E9
:100D3000084601F087FB1AA20021022001F082FB85
:100D40001A4804F025F91AA20021022001F07AFBCA
:100D50001BA0FFF765FA00BF12E01DA125A000F05F
:100D600075F805462DB10126294628A0FFF758FA47
:100D700004E000262DA0FFF753FA03E0601CC4B284
:100D8000032CEADB00BFFFF7BBFF01F04FF8304652
:100D900070BD0000436F6E6E65637420546F000079
:100DA000536572766572202E2E2E000080841E0000
:100DB000536572766572202E2E2E2E2E2E00000088
:100DC000C1ACBDD3D4C6C6BDCCA82E2E2E0D0A00F4
:100DD00063393930376461303234613434346264B9
:100DE00038363764643364353734396465313735C0
:100DF00000000000616972636F6E646974696F6EF0
:100E0000657231303035303731333900436F6E6EB3
:100E100065637420546F2053657276657220455265
:100E2000524F523D25640D0A00000000436F6E6E64
:100E300065637420546F2053657276657220537514
:100E4000636365737320210D0A0000002DE9F041F2
:100E5000C0B006460F46002400254FF48071684656
:100E6000FFF7A0FB44A0FFF7DBF94AA20021042012
:100E700001F0E8FA00BF08E000F09CFA08B900258C
:100E800005E04FF0FF35601C84B2032CF4DB00BF9B
:100E9000002D03DA284640B0BDE8F08142A0FFF7FC
:100EA000BFF947A20021042001F0CCFA00240AE097
:100EB00048A14BA000F044FA08B9002505E06FF006
:100EC0000105601C84B2032CF2DB00BF002D01DAA7
:100ED0002846E0E744A0FFF7A3F947A20021042039
:100EE00001F0B0FA00240BE042F2981147A000F0A4
:100EF000EBF908B9002505E06FF00205601C84B22B
:100F0000032CF1DB00BF002D01DA2846C3E73B4686
:100F1000324642A16846FFF78FF969464CA0FFF7B9
:100F20007FF94FA20021042001F08CFA6846FFF7F8
:100F3000ABFA00F0FF084146684600F06DF9002862
:100F400002DA6FF0030515E000240FE049A14C48D8
:100F5000FFF788FA10B96FF0040501E0002508E0FA
:100F600042F2107004F014F8601C84B2B4F5FA7FF9
:100F7000ECDB00BF28468EE7C9E8D6C3576946694F
:100F8000CDA8D1B6C4A3BFE9B9A4D7F7C4A3CABD3D
:100F90000D0A000053657420576946692053746137
:100FA00074696F6E00000000C9E8D6C3C8C8B5E315
:100FB000C3FBB3C6BACDC3DCC2EB0D0A0000000010
:100FC000436F6E6E65637420546F205769466920C5
:100FD000000000003132333434333231000000007D
:100FE0005754323333330000C1ACBDD3B7FECEF11A
:100FF000C6F70D0A00000000436F6E6E65637454FF
:101000006F53657276657220000000003132302E19
:1010100037372E35382E3334000000007B227422FF
:101020003A312C22646576696365223A222573225F
:101030002C226B6579223A222573222C2276657246
:10104000223A2276302E302E302E30227D000000C3
:10105000CED5CAD6C8CFD6A4A3BA25730D0A000030
:1010600041757468656E7469636174696E67202088
:101070000000000022737461747573223A3000001E
:10108000E20000200246107800F00F00092801DD80
:1010900000207047107800F0F000902801DD00205B
:1010A000F7E7107800F00F000870087813781B112C
:1010B00003EB830300EB430008700120E9E770476E
:1010C00070B50446002C35D0012C07D100F0AEFEDF
:1010D00019A20021022001F0B5F908E0022C06D186
:1010E00000F0A4FE1DA20021022001F0ABF9C825EA
:1010F00003E042F2107003F04BFF281EA5F101013E
:10110000CDB2F6D100F092FE04231D4A002108461C
:1011100001F098F804231B4A0021022001F092F804
:10112000194A5021002001F081F8174A502102206D
:1011300001F07CF870BD00005468726573686F6CD4
:101140006420636F6E666C6963742C20506C6561FB
:1011500073652072657365742100000054696D65C4
:1011600020666F726D6174206572726F722C2050F0
:101170006C65617365207265736574210000000001
:101180009A6300081A640008DA6400082DE9F04147
:1011900007460E460024002512A13846FFF762F9E3
:1011A0000446E4B1A1796079303800EB800001EBAE
:1011B00040003038C5B20DA13846FFF753F9441C42
:1011C0002A4621463046FFF77EF900207055314609
:1011D00007A0FFF725F829460AA0FFF721F82846BF
:1011E000BDE8F0812B4950442C0000003A0000007B
:1011F000CAD5B5BD4950CAFDBEDDA3BA25730D0AD7
:1012000000000000CAD5B5BD4950CAFDBEDDB3A47B
:10121000B6C83D25640D0A002DE9F041C0B0064670
:101220000C46002500274FF480716846FFF7BAF995
:10123000FFF766FD22461BA16846FEF7FDFF6846E4
:10124000FFF722F900F0FF084146684602F05CF81B
:1012500040F6B83003F09CFE16A11748FFF702F9DC
:1012600018B9681E40B0BDE8F081FFF749FD21467E
:10127000304602F057F800250EE010A10E48FFF7A7
:10128000F1F810B96FF0010701E0002706E00D4802
:1012900003F07EFE681CC5B23C2DEEDB00BF384675
:1012A000E0E7000041542B43495053454E443D254F
:1012B000640000004F4B0000E200002053454E4404
:1012C000204F4B00A086010070B5C0B004460D460B
:1012D0004FF480716846FFF765F9FFF711FD2B4663
:1012E00022460DA16846FEF7A7FF6846FFF7CCF837
:1012F000C6B23146684602F007F80E4803F048FED1
:101300000DA10E48FFF7AEF818B94FF0FF3040B00E
:1013100070BD0020FBE7000041542B43495053545B
:101320004152543D22544350222C222573222C2515
:101330006400000060E316004F4B0000E200002054
:1013400070B5C0B004460D464FF480716846FFF793
:1013500029F9FFF7D5FC2B4622460DA16846FEF77A
:101360006BFF6846FFF790F8C6B23146684601F059
:10137000CBFF0D4803F00CFE0CA10D48FFF772F8EF
:1013800018B94FF0FF3040B070BD0020FBE70000FF
:1013900041542B43574A41505F4355523D222573D8
:1013A000222C22257322000060EC53004F4B0000DA
:1013B000E200002010B5FFF7A3FC0F2107A001F009
:1013C000A3FF0A4803F0E4FD09A10A48FFF74AF821
:1013D00010B94FF0FF3010BD0020FCE741542B4303
:1013E000574D4F44455F4355523D3100A0860100A3
:1013F0004F4B0000E20000202DE9F041024600259D
:101400000026002000230024002791F803C00CF0E0
:101410000F0591F803C00CF0100CBCF1000F03D0C5
:1014200091F802C04CEA050591F800C0BCF1000F2C
:1014300031D0146800202BE04FF0010C0CFA00F3BF
:10144000B1F800C00CEA03069E4220D183004FF0A1
:101450000F0C0CFA03F7BC4305FA03FC4CEA040436
:1014600091F803C0BCF1280F06D14FF0010C0CFA23
:1014700000FCC2F814C00AE091F803C0BCF1480FA8
:1014800005D14FF0010C0CFA00FCC2F810C0401C52
:101490000828D1D31460B1F800C0BCF1FF0F34DDCF
:1014A000546800202EE000F1080C4FF0010808FA03
:1014B0000CF3B1F800C00CEA03069E4221D1830070
:1014C0004FF00F0C0CFA03F7BC4305FA03FC4CEA8F
:1014D000040491F803C0BCF1280F05D100F1080CF9
:1014E00008FA0CF8C2F8148091F803C0BCF1480F58
:1014F00007D100F1080C4FF0010808FA0CF8C2F807
:101500001080401C0828CED35460BDE8F08102460C
:101510000020D3680B400BB1012000E00020704791
:101520000161704708B51020022301220D49009087
:10153000082001F0CFFE1020022320220A4900904B
:1015400001F0C8FE1020022302460749009001F076
:10155000C1FE0120054908600549C1F8940105490B
:10156000086008BD000C014000100140808121424C
:1015700000002242900122422DE9F04704468846AD
:1015800016461D464FF0000A05EB85004FF6FF7129
:1015900001EA40050121204600F070F84CB346B343
:1015A0003DB3642E20DA012704F001044FF0000956
:1015B00017E004EA070070B1184880F8008005FBC6
:1015C00006F0642190FBF1F01449488008468580BC
:1015D0000020C8807C4009F1010000F0FF09780676
:1015E000070E002CE5D108E00121204600F046F866
:1015F00003E00021204600F041F84FF0000A08E027
:1016000000F00EF8642003F0C3FC0AF101001FFA99
:1016100080FAAA45F4DBBDE8F08700002C0000202A
:1016200014480078002823DD1248C08811498988B1
:10163000884216DA0F48C188C088401C0D4AD08005
:1016400010464088814208DA0B48006808B901203A
:1016500000E00020084908600AE000200649086010
:1016600006E000200349C88008460078401E087044
:10167000704700002C000020A001214200F0010270
:1016800042B1012903D10122034B1A6002E000227A
:10169000014B1A6070470000A001214202A0FEF732
:1016A000BFFD00BFFEE700000D0A4861726446619D
:1016B000756C745F48616E646C6572204552524F60
:1016C000520D0A0008B51020022340220C49009058
:1016D000042001F0FFFD00200A4908600A49C1F812
:1016E0009801022003F054FC012006490860022002
:1016F00003F04EFC00200449C1F89C0108BD000025
:10170000000801409C0121420000214208B5102040
:101710000223402209490090042001F0DBFD102043
:101720000223802205490090042001F0D3FD01200E
:10173000034908600349C1F89C0108BD0008014045
:10174000980121420000214208B5102002234022C6
:101750000C490090042001F0BDFD00200A490860FA
:1017600001200A49C1F89801022003F011FC012070
:1017700005490860022003F00BFC00200349C1F872
:101780009C0108BD000801409C012142000021424B
:1017900038B5FF244820022340221049009004203D
:1017A00001F098FD002514E001200D490860022099
:1017B00003F0EEFB6006040E0A48D0F8180120433F
:1017C000C4B2002006490860022003F0E1FB681C57
:1017D000C5B2082DE8DB204638BD000000080140F6
:1017E0009C0121420000214238B5482002234022BA
:1017F00010490090042001F06DFD022003F0C8FBA9
:1018000001200D490860322407E0022003F0C0FBEC
:10181000601EC4B20CB9002038BD07488438006887
:101820000028F2D104490860022003F0B1FB012036
:10183000F2E70000000801409C01214208B5102099
:10184000022340220F490090042001F043FD0120B3
:101850000D4908600D49C1F89C01022003F098FB76
:10186000022003F095FB002007490860022003F0E6
:101870008FFB022003F08CFB00200449C1F89C017F
:1018800008BD0000000801409801214200002142EB
:1018900008B510200223402212490090042001F0D4
:1018A00019FD0020104908601049C1F89801022074
:1018B00003F06EFB022003F06BFB01200A49086075
:1018C000022003F065FB022003F062FB01200749C0
:1018D000C1F89801022003F05BFB022003F058FBE3
:1018E00008BD0000000801409C0121420000214287
:1018F00038B50446102002234022144900900420E9
:1019000001F0E8FC00251BE004F0800018B1012084
:101910000F49086002E000200D4908606006040ECF
:10192000022003F035FB01200949091D086002204F
:1019300003F02EFB00200749C1F89C01681CC5B2CA
:10194000082DE1DBFFF750FF38BD00000008014023
:1019500098012142000021422DE9F0410446002572
:1019600029E0FFF76BFF264600271BE006F080000A
:1019700018B101201249086002E0002010490860F7
:101980007006060E022003F003FB01200C49091D1E
:101990000860022003F0FCFA00200A49C1F89C010B
:1019A000781CC7B2082FE1DBFFF71EFF08B1BDE8C6
:1019B000F081681CC5B21E2DD3DB00BFF7E7000025
:1019C000980121420000214208B510200223202264
:1019D00009490090042001F07DFC102002230246FA
:1019E00005490090042001F075FC012003490860BE
:1019F0000349C1F8900108BD00080140940121424B
:101A000000002142F8B505460024002615E06006D6
:101A1000040E01201C490860022003F0B9FA1B489B
:101A2000D0F8140108B144F0010400201649086000
:101A3000022003F0ADFA701CC6B2082EE7DB1020BE
:101A40000223202212490090042001F043FC25B11A
:101A500000200D49091D086003E001200A49091D05
:101A60000860022003F094FA012007490860022070
:101A700003F08EFA00200549C1F89001022003F01E
:101A800087FA2046F8BD0000900121420000214263
:101A90000008014010B501200C4908600C49C1F84C
:101AA0009401022003F074FA022003F071FA00207E
:101AB00006490860022003F06BFA022003F068FA7E
:101AC00000200349C1F8900110BD0000940121429B
:101AD0000000214210B500200A490860022003F0EE
:101AE00057FA01200849C1F89001022003F050FA8A
:101AF000022003F04DFA012002490860022003F0A1
:101B000047FA10BD9401214200002142F8B5054674
:101B100000241AE000202A49086005F0800018B16E
:101B20000120091D086003E000202549091D086007
:101B3000022003F02DFA012021490860022003F061
:101B400027FA6806050E601CC4B2082CE2DB0020F0
:101B50001B4908604820022320221A4900900420D3
:101B600001F0B8FB022003F013FA022003F010FA90
:101B7000022003F00DFA01201349C1F8900100245E
:101B800004E0022003F004FA601CC4B2C82C04DA9A
:101B90000B487C3800680128F3D0022003F0F8F9E4
:101BA00007487C38006808B9002600E001260020BC
:101BB00003490860022003F0EBF93046F8BD00004D
:101BC00090012142000801400000214210B5044666
:101BD000A82C42D008DC022C4ED0902C38D0982C67
:101BE0006AD0A22C78D106E0C22C76D0E02C2BD083
:101BF000E22CF7D130E05848007808B9012000E025
:101C000000205549087008460078012819D000F0D6
:101C10000DF90120514908601D2208215048FEF7A6
:101C200097FC082200214E4803F0E8FA00204D49B5
:101C3000C1F88C014C49086049F6404003F0A8F90E
:101C400001E000F053FF60E00120484908705CE0CB
:101C500002204649087058E000BF44480078401C04
:101C60004249087008460078032804DB00F0DEF8DB
:101C700000203E49087048E03C48007801280BD11C
:101C80003B4890F90000632815DA39480078401C79
:101C900040B2374908700EE03448007802280AD173
:101CA000344890F90000632805DA32480078401C77
:101CB00040B23049087028E02C48007801280DD146
:101CC0002B4890F90000002817DD29480078401EB5
:101CD00040B22749087010E016E00FE02348007872
:101CE00002280AD1234890F90000002805DD214888
:101CF0000078401E40B21F49087006E000F096F8D8
:101D000000201A49087000E000BF00BF17480078A3
:101D100001280ED1164890F90000164991F90010DB
:101D2000884218DA12480078401C40B21049087006
:101D300011E00E48007802280DD10D4890F90000FE
:101D40000C4991F90010884205DA0A480078401ED3
:101D500040B20849087010BD05000020B881224239
:101D600014000020000022428801224202000020CC
:101D7000000000200100002010B5002401F09EF9B1
:101D80000446D4B11148007803280CDD10480078CF
:101D9000A04206D00E48047000200E49086020467C
:101DA00010BD0020FCE70948007803280BDC074839
:101DB0000078401C0549087005E0002004490870BF
:101DC00002490870ECE70020EAE7000090000020DC
:101DD000910000208C00002010B5192400F00CF8B0
:101DE000044622460249034802F0C8FE10BD000026
:101DF000030000200200002000B503F071F909493A
:101E00000870094800780978884204D005480078AD
:101E10000549087002E0192002490870014800785D
:101E200000BD0000360000203700002070B50025FE
:101E300000BF1BE00021284600F096F9002404E0D2
:101E4000002000F0D7F9601CC4B2402CF8DB402120
:101E5000284600F089F9002404E0002000F0CAF9C7
:101E6000601CC4B2402CF8DB681CC5B2082DE1DB55
:101E700070BD000010B50020094908600949C1F88B
:101E80008C0109A2602100F0DDFA07A26021022086
:101E900000F0D8FA04A26021042000F0D3FA10BDAB
:101EA0008801224200002242202020200000000061
:101EB00070B505460026002400BF15E0002130461D
:101EC00000F052F900240BE0402C03D121463046AB
:101ED00000F04AF9287800F08DF96D1C601CC4B23E
:101EE000802CF1DB701CC6B2082EE7DB70BD2DE93B
:101EF000F05F06460F4614469946DDF828A04FF0DD
:101F0000000800252046E11704EB5171C1F3C70B0F
:101F1000B0461BE03946404600F026F93D460DE04C
:101F2000402D03D12946404600F01EF99AF80000E2
:101F300000F060F90AF1010A681CC5B209EB07005C
:101F4000A842EDDC08F1010000F0FF080BEB0600F1
:101F50004045DFDCBDE8F09F10B51048007830B197
:101F60000E480078FFF7ACF800200C4908700C48C8
:101F700090F900300B4890F900200B4890F90010C0
:101F80000A48007802F030FC094800F0C1FD084919
:101F90000648007800F082FA10BD0000040000201E
:101FA0001C00002001000020000000200200002092
:101FB0000600002008B51020022382024F4900903D
:101FC000202001F087F91020022301224B490090C4
:101FD000202001F07FF91020022380224849009040
:101FE000402001F077F9102002234201444900907B
:101FF000402001F06FF910200223C20140490090F7
:10200000402001F067F91020022342023C49009071
:10201000402001F05FF910200223C20238490090ED
:10202000402001F057F9102002234201334900906B
:10203000202001F04FF910200223C2022F49009006
:10204000202001F047F9102002231A462B49009066
:10205000202001F03FF910200223020128490090BE
:10206000402001F037F9102002238201244900901A
:10207000402001F02FF91020022302022049009095
:10208000402001F027F91020022382021C49009011
:10209000402001F01FF9102002230201174900908F
:1020A000202001F017F90120164908601649C1F8EF
:1020B000800116490860154908310860134910313C
:1020C00008601249203108600E49143908600D4932
:1020D000091D08600B49343908600C49091D086066
:1020E0000A490C31086009491431086007491C315C
:1020F00008600549C1F8A00108BD000000140140B6
:1021000000180140B8812242008022429C012342F3
:1021100010B5FFF74FFF00200F4908600F49C1F8C5
:1021200080010F4802F034FF01200B493839086064
:102130004FF47A7002F02CFF01200A490860094927
:1021400008390860C02000F039F83F2000F036F868
:10215000FFF76CFE10BD0000B881224200802242D1
:10216000A0860100A401234270B505460C46402C10
:1021700007DB01200F49086000200F49C1F8A401C6
:1021800007E001200B490831086000200A49C1F826
:102190009C01C02000F012F804F03F0101F1400062
:1021A00000F00CF805F00701B831C8B200F006F8ED
:1021B00070BD00009C0123420000234210B504467C
:1021C0000020094908600949C1F8B801204600F01B
:1021D00051F801200649086002F0DAFE00200349A8
:1021E000C1F8B00110BD0000A081224200002342CE
:1021F000B001234210B504460120094908600020BF
:102200000849C1F8B801204600F034F80120064919
:10221000086002F0BDFE00200249C1F8B00110BD07
:10222000A081224200002342B0012342F8B50546B6
:102230000E46144610231A46314628460094FFF7EE
:1022400056FEF8BD2DE9F04180460C4615461E4667
:1022500000270AE02A4621464046FFF7E7FF04F13F
:102260001000C4B22035781CC7B2B742F2DBBDE81B
:10227000F081000038B5054610200223C201544900
:102280000090402001F026F810200223420250491D
:102290000090402001F01EF810200223C2024C4999
:1022A0000090402001F016F8102002234201494915
:1022B0000090202001F00EF810200223C2024549B0
:1022C0000090202001F006F8102002231A46414910
:1022D0000090202000F0FEFF1020022302013C4964
:1022E0000090402000F0F6FF1020022382013849C0
:1022F0000090402000F0EEFF002466E00120A040A6
:10230000284078B3082C2BD2DFE804F004080D1124
:10231000161B202501203049086022E001202E49AB
:10232000083908601DE001202C49086019E00120EF
:102330002A493831086014E001202849203108601A
:102340000FE001202449143108600AE001202249ED
:102350000C31086005E001201F49091D086000E0FC
:1023600000BF30E0FFE7082C2BD2DFE804F00408C0
:102370000D11161B202500201749086022E00020BF
:102380001549083908601DE000201449086019E06B
:10239000002012493831086014E000200F49203134
:1023A00008600FE000200C49143108600AE00020AA
:1023B00009490C31086005E000200749091D086043
:1023C00000E000BF00BF601CC4B2082C96DB38BD23
:1023D0000018014000140140A801234284812242D8
:1023E0002DE9F04706460F469046A8F1200000F080
:1023F000FF08002420E03119C8B23946FFF7B4FEC7
:10240000E0064FEA1069002512E07819402805D14E
:102410007A19D1B23219D0B2FFF7A6FE084901EB02
:10242000081105EB0902885CFFF7E4FE681CC5B2E1
:10243000082DEADB601CC4B2022CDCDBBDE8F087AF
:102440007A6900082DE9F04106460F46144600253A
:10245000A8461DE0782D08DDB01CC6B22278002108
:102460003046FFF7BDFF082508E022787819C1B291
:102470003046FFF7B5FF05F10800C5B2641C08F14E
:10248000010000F0FF08B8F1400F01DDBDE8F08168
:1024900020780028DED100BFF8E7000070B50546BF
:1024A0000C46FE48007809287ED2DFE800F00506D9
:1024B0000756BAFDFCFBFA0000BF00BF204601F042
:1024C00005FC002833D0A0780009F5490870A078F1
:1024D00000F00F004870E07800098870E07800F0A4
:1024E0000F00C870207900090871207900F00F00F2
:1024F0004871607900098871607900F00F00C87137
:10250000A079E849097888420BD0A079E54908709C
:10251000E348417980208843E14949790843E0490B
:10252000487108220021DE4802F068FE14E01820FD
:10253000DB490870192048700C2088700E20C87084
:10254000182008714871152088711820C871082258
:102550000021D34802F052FE42E2D34800780A211B
:1025600090FBF1F000F00F00CD490870CE480078E4
:102570000A2190FBF1F201FB120000F00F00C849A4
:102580004870C94840780A2190FBF1F000F00F0034
:10259000C3498870C44840780A2190FBF1F201FBDE
:1025A000120000F00F0000E006E2BD49C870BE480E
:1025B00080780A2190FBF1F000F00F00B849087113
:1025C000B94880780A2190FBF1F201FB120000F07B
:1025D0000F00B3494871B448C0780A2190FBF1F06C
:1025E00000F00F00AE498871AF48C0780A2190FB17
:1025F000F1F201FB120000F00F00A949C871A079A7
:10260000A8490978884206D0A079A64908701D20FB
:10261000A3498870C87008220021A14802F0EEFD8D
:10262000DEE1A14800780A2190FBF1F000F00F00F4
:102630009B4908709C4800780A2190FBF1F201FB4D
:10264000120000F00F0096494870974840780A2120
:1026500090FBF1F000F00F009149887092484078AB
:102660000A2190FBF1F201FB120000F00F008C49EF
:10267000C8708D4880780A2190FBF1F000F00F00BF
:1026800087490871884880780A2190FBF1F201FBA4
:10269000120000F00F00824948718348C0780A2177
:1026A00003E036E1D9E085E022E090FBF1F000F0B4
:1026B0000F007B4988717C48C0780A2190FBF1F2B9
:1026C00001FB120000F00F007549C871A07975492F
:1026D0000978884206D0A079724908701D20704997
:1026E00008714871082200216D4802F087FD77E1EA
:1026F0006D4800780A2190FBF1F000F00F00684966
:102700000870694800780A2190FBF1F201FB120081
:1027100000F00F0062494870634840780A2190FB3E
:10272000F1F000F00F005E4988705F4840780A21A0
:1027300090FBF1F201FB120000F00F005849C87045
:10274000594880780A2190FBF1F000F00F005449BD
:102750000871554880780A2190FBF1F201FB1200C4
:1027600000F00F004E4948714F48C0780A2190FB95
:10277000F1F000F00F004A4988714B48C0780A21F7
:1027800090FBF1F201FB120000F00F004449C87108
:10279000A07944490978884206D0A0794149087057
:1027A0001D203F498871C871082200213C4802F071
:1027B00025FD15E11D203A4908703B4800790A21A2
:1027C00090FBF1F000F00F00354948703648007971
:1027D0000A2190FBF1F201FB120000F00F003049DA
:1027E0008870314840790A2190FBF1F000F00F0029
:1027F0002B49C8702C4840790A2190FBF1F201FB6B
:10280000120000F00F0026490871274880790A213C
:1028100090FBF1F000F00F002149487122488079C7
:102820000A2190FBF1F201FB120000F00F001C499D
:1028300088711D20C871A0791A490978884206D08C
:10284000A079184908701D20154948708870082221
:102850000021134802F0D2FCC2E01D20104908708C
:10286000114800790A2190FBF1F000F00F000C49AB
:1028700048700D4800790A2190FBF1F201FB12002B
:1028800000F00F0006498870074840790A2190FB44
:10289000F1F000F00F000249C87007E002000020CC
:1028A000140000201D0000200D0000204D4840793C
:1028B0000A2190FBF1F201FB120000F00F004A49DF
:1028C0000871484880790A2190FBF1F000F00F0070
:1028D00045494871434880790A2190FBF1F201FB98
:1028E000120000F00F00404988711D20C871A079C6
:1028F0003E490978884206D0A0793C4908701D20DD
:102900003949C870087108220021374802F076FC66
:1029100066E01D2034490870324800790A2190FB96
:10292000F1F000F00F00304948702E4800790A217C
:1029300090FBF1F201FB120000F00F002A498870B1
:10294000284840790A2190FBF1F000F00F00264959
:10295000C870244840790A2190FBF1F201FB120073
:1029600000F00F00204908711E4880790A2190FB71
:10297000F1F000F00F001C4948711A4880790A21D3
:1029800090FBF1F201FB120000F00F001649887174
:102990001D20C871A07915490978884206D0A07910
:1029A000124908701D2010494871887108220021C1
:1029B0000D4802F023FC13E00E200B49087018208C
:1029C000487088701520C870182008711D20487143
:1029D0008871C87108220021034802F00FFC00BF73
:1029E00000BF70BD0D000020140000201D0000205D
:1029F000F8B504460D4617461E46304600F00DF861
:102A00008DF800708DF801408DF8025001208DF88E
:102A10000300684600F028F8F8BD10B504462046CB
:102A200000F05AF810BD000002A0FDF7F9FB00BF4E
:102A3000FEE700000D0A4D656D4D616E6167655FD3
:102A400048616E646C6572204552524F520D0A0007
:102A50007047000010B5002002F0CEFA014908705E
:102A600010BD00001C00002070B5002100230F22C3
:102A7000C47804B3154C246804F4E064C4F5E0643D
:102A8000210AC1F10403CA40447804FA03F18478AE
:102A90001440214309010E4C0678A155047804F036
:102AA0001F050124AC4005786D11AD0005F1E0254E
:102AB000C5F8004109E0047804F01F050124AC408A
:102AC000044D0678761145F8264070BD0CED00E007
:102AD00000E400E080E100E002490143024A1160A5
:102AE000704700000000FA050CED00E006480068A1
:102AF00000F4E06005490843001D03490860BFF386
:102B00004F8F00BFFEE700000CED00E00000FA056B
:102B100038B50446002549E00122611C082000F078
:102B2000B5F80122A11C072000F0B0F80122E11C39
:102B3000052000F0ABF80122211D042000F0A6F8CA
:102B40000122611D032000F0A1F80122A11D022035
:102B500000F09CF8A07800F0800010B120202070D8
:102B600001E019202070A07900F07F00A071607949
:102B700000F07F006071207900F03F002071E07864
:102B800000F03F00E070A07800F01F00A07001226C
:102B90006946032000F07AF89DF8000000F07F00FD
:102BA0006179884200D103E0681CC5B2022DB3DB15
:102BB00000BF38BD1CB500F08BF86846FFF7A8FFD2
:102BC0006846FFF7A5FF6846FFF7A2FF9DF80000E3
:102BD00020281DD19DF80100992819DC9DF80200DC
:102BE000122815DC9DF80300312811DC9DF8040043
:102BF00024280DDC9DF80500602809DC9DF80600FE
:102C0000602805DC9DF8020010B19DF8030040BB70
:102C1000164800F063F816A0FDF702FB6846FFF7C0
:102C200077FF9DF80100992819DC9DF80200122811
:102C300015DC9DF80300312811DC9DF804002428E0
:102C40000DDC9DF80500602809DC9DF80600602871
:102C500005DC9DF8020010B19DF8030008B90020C2
:102C60001CBD00F035F80120FAE70000C87100082B
:102C7000C8D5C6DAB8F1CABDB2BBB6D4A3ACD6D8F3
:102C8000C9E8525443CAB1BCE40D0A002DE9F04131
:102C900007460E461546A220FEF75EFE3846FEF7B2
:102CA00027FEA320FEF758FE002409E0FEF770FD82
:102CB0003055681EA04201DDFEF704FD601CC4B261
:102CC000AC42F3DBFEF740FDFEF7E2FDBDE8F0812C
:102CD00010B50021084600F02CF810BD10B50446D0
:102CE0002021002000F025F86178082000F021F86C
:102CF0002078192804D1A178072000F01AF805E0FF
:102D0000A07840F08001072000F013F8E17805205A
:102D100000F00FF82179042000F00BF8617903200E
:102D200000F007F8A179022000F003F8FFF7D0FFC8
:102D300010BD70B505460C46A220FEF70DFE2846D4
:102D4000FEF7D6FD2046FEF7D3FDFEF7A1FD70BDD0
:102D5000F8B504460D4605F00305FEF735FEFEF70F
:102D600099FE9020FEF7D2FE0646012E00D1F8BD56
:102D70001020022320222B490090042000F0AAFA00
:102D80002846FEF7C3FE0646012E00D1EFE71020CD
:102D90000223202223490090042000F09BFAFEF732
:102DA00079FE9120FEF7B2FE0646012E00D1DEE745
:102DB0000120FEF727FEFEF78DFEFEF76BFE912049
:102DC000FEF7A4FE0646012E00D1D0E70120FEF753
:102DD00019FE48200223202212490090042000F00E
:102DE00079FA0120FEF70EFE2070482002232022EF
:102DF0000C490090042000F06DFA0120FEF702FE5D
:102E0000207048200223202206490090042000F070
:102E100061FA0020FEF7F6FD2070FEF75BFE002051
:102E2000A5E70000000801407047000010B5044607
:102E3000012C13D0FEF7FAFF01200A4908601D2279
:102E400008210948FDF784FB08220021064802F00A
:102E5000D5F949F6404002F09BF801E0FFF746FE45
:102E600010BD0000B88122421400002029B1064A9A
:102E7000D2690243044BDA6104E0034AD269824317
:102E8000014BDA61704700000010024029B1064A88
:102E900012690243044B1A6104E0034A1269824337
:102EA000014B1A61704700000010024029B1064A28
:102EB00092690243044B9A6104E0034A9269824397
:102EC000014B9A61704700000010024029B1064A88
:102ED000D2680243044BDA6004E0034AD2688243BA
:102EE000014BDA60704700000010024030B500214D
:102EF0000022002400232D4D6D6805F00C0121B146
:102F0000042905D0082923D105E0294D056022E0D8
:102F1000274D05601FE0254D6D6805F47012234DA7
:102F20006D6805F48034022505EB92421CB9214DF1
:102F3000554305600BE01D4D6D6805F400351DB16E
:102F40001C4D5543056002E0194D5543056002E0F4
:102F5000174D056000BF00BF144D6D6805F0F0010E
:102F60000909154D6B5C0568DD4045600F4D6D68C6
:102F700005F4E061090A104D6B5C4568DD40856031
:102F80000A4D6D6805F46051C90A0B4D6B5C4568CC
:102F9000DD40C560054D6D6805F44041890B074D66
:102FA0006B5CC568B5FBF3F5056130BD00100240F0
:102FB00000127A0000093D0068000020780000201F
:102FC000024909888143014A118070470428004062
:102FD00001460020064A12880A40D0B2044A121F55
:102FE00012880A4012B108B1012000E000207047A9
:102FF0000428004010B50120FFF7EAFF10B10120BE
:10300000FFF7DEFF10BD000000B589B001210420EC
:10301000FFF74CFF01210820FFF728FF0120ADF842
:10302000200048208DF8230003208DF8220008A9F5
:103030002048FEF7E1F901211E48FEF771FA42F23D
:103040001070ADF814004720ADF810000020ADF866
:103050001600ADF8120004A9174800F0E5FD0020A5
:10306000ADF80400ADF806000120ADF8080000201E
:10307000ADF80A000320ADF80C0001A90E4800F0DD
:10308000E1FC01210C4800F0BDFC32208DF81C0051
:1030900002208DF81D008DF81E0001208DF81F0004
:1030A00007A8FFF7E1FC01220321034800F020FDFF
:1030B00009B000BD00080140000C004010B5002020
:1030C000154B1B7803F040032BB3144B1B68190EF0
:1030D000124B1B68C3F30742D343DBB28B420BD1C5
:1030E00051B90E4B1B88C3F307210C4B1A78D343FD
:1030F000DBB28B4200D1084620B1074B1B7803F0AE
:10310000800343B9044B1B7823F04003024C237027
:103110000023034C237010BD880000208C00002089
:10312000890000202DE9F04FC5B005460E46174630
:103130009846DDF838914FF0000AD34600244FF44A
:10314000807105A8FDF72EFA4B462A46204905A8AE
:103150008DE8C002CDF80C80FDF76EF800BF05A821
:10316000FDF792F9C0B20146049005A8FEF754F8A5
:10317000002802DA4FF0FF3B19E04FF0000A12E09E
:1031800014A11748FDF76EF910B94FF0FF3B02E0AC
:103190004FF0000B0AE042F2107001F0F9FE0AF164
:1031A000010000F0FF0ABAF1320FE9DB00BFBBF10A
:1031B000000F08D0022C06DA611C0AA0FDF730F8D7
:1031C000601CC4B2CBE7584645B0BDE8F08F0000A4
:1031D0005472000822737461747573223A300000CF
:1031E000E2000020D6D8B7A2B4ABB8D0CAFDBEDD8D
:1031F0002564B4CE0D0A00002DE9F04FC7B0064695
:103200000F4690469946529C4FF0000AD34600253F
:103210004FF4807107A8FDF7C5F950995198CDE991
:103220000414234632462149CDE90249CDE900780C
:10323000069007A8FDF700F800BF07A8FDF724F9DE
:10324000C0B20146069007A8FDF7E6FF002802DAA3
:103250004FF0FF3B19E04FF0000A12E014A11748AD
:10326000FDF700F910B94FF0FF3B02E04FF0000B03
:103270000AE042F2107001F08BFE0AF1010000F04A
:10328000FF0ABAF1320FE9DB00BFBBF1000F08D033
:10329000022D06DA691C0AA0FCF7C2FF681CC5B241
:1032A000CBE7584647B0BDE8F08F0000FC7100083E
:1032B00022737461747573223A300000E2000020BA
:1032C000D6D8B7A2B4ABB8D0CAFDBEDD2564B4CEA3
:1032D0000D0A00002DE9F84307460C4615461E4628
:1032E000DDF8208001213846FFF7E0FDADF8005001
:1032F0008DF802608DF8038069462046FEF77CF861
:10330000BDE8F8837047000070B504460D462946B5
:10331000204600F0EDFD022101A000F0E9FD70BDA6
:103320000D0A000070B504460D462946204600F0FF
:10333000DFFD70BD10B500F001F810BD0CB5002028
:10334000019000903348006840F4803031490860B3
:1033500000BF3048006800F4003000900198401C25
:103360000190009818B90198B0F5A06FF1D12948E3
:10337000006800F4003010B10120009001E000204E
:1033800000900098012843D12348006840F01000C5
:10339000214908600846006820F0030008600846DC
:1033A000006840F0020008601A4840681949486007
:1033B0000846406848600846406840F480604860BD
:1033C0000846406820F47C1048600846406840F495
:1033D000E81048600846006840F08070086000BF50
:1033E0000C48006800F000700028F9D009484068D7
:1033F00020F00300074948600846406840F002009A
:10340000486000BF0348406800F00C000828F9D16C
:103410000CBD000000100240002002407047000078
:1034200010B51348006840F00100114908600846D3
:103430004068104908400E494860084600680E4937
:1034400008400B4908600846006820F480200860A6
:103450000846406820F4FE0048604FF41F00886072
:10346000FFF768FF4FF000600449086010BD0000DE
:10347000001002400000FFF8FFFFF6FE08ED00E03C
:10348000F0B50C46154600220021068C4FF6FE775B
:103490003E400684028B018C4FF60C7632407E1C37
:1034A00006EA03162E433243104EB0420ED0104EA1
:1034B000B0420BD0B0F1804F08D00E4EB04205D0D4
:1034C0000D4EB04202D00D4EB04206D14FF6FD7601
:1034D000314044F00106314305E04FF6F5763140C6
:1034E00044F00106314302830184F0BD002C014009
:1034F000003401400004004000080040000C00407F
:10350000F0B50C461546002200210026078C4FF628
:10351000EF7C07EA0C070784028B018C4FF6FF77DC
:1035200007EA041640F6FF473A404FF6FF7707EAEE
:1035300003373A434FF6FF7707EA05273A43114F1F
:10354000B8420ED0104FB8420BD0B0F1804F08D027
:103550000E4FB84205D00E4FB84202D00D4FB842C0
:1035600006D14FF6DF77394046F01007394305E0C2
:103570004FF65F77394044F01007394302830184E6
:10358000F0BD0000002C0140003401400004004068
:1035900000080040000C0040F0B50C461546002223
:1035A00000210026078C4FF6FF6C07EA0C07078402
:1035B000828B018C4FF6FF7707EA04264FF60C77D3
:1035C0003A404FF6FF7707EA03172F433A43114F6C
:1035D000B8420ED0104FB8420BD0B0F1804F08D097
:1035E0000E4FB84205D00E4FB84202D00D4FB84230
:1035F00006D14FF6FF57394046F48077394305E04E
:103600004FF2FF57394044F4807739438283018475
:10361000F0BD0000002C01400034014000040040D7
:1036200000080040000C0040F0B50C461546002292
:1036300000210026078C4EF6FF7C07EA0C07078462
:10364000828B018C4FF6FF7707EA043640F6FF477E
:103650003A404FF6FF7707EA05273A434FF6FF77E0
:1036600007EA03373A43114FB8420ED0104FB84221
:103670000BD0B0F1804F08D00E4FB84205D00E4F9E
:10368000B84202D00D4FB84206D14DF6FF7739400F
:1036900046F48057394305E047F6FF57394044F474
:1036A0008057394382830184F0BD0000002C014023
:1036B000003401400004004000080040000C0040BD
:1036C00010B50221480700F0ACF9002865D00221AE
:1036D000480700F094F93148007880B1304800780C
:1036E000401C2F49087008460078032807DD002099
:1036F0002A4908702A49087001202A49087001F0F7
:1037000029FD29480088401C27490880274800884F
:10371000401C2649088026480088401C244908800F
:1037200024480088401C2349088023480088401C06
:10373000214908801C480088B0F5004F02DD0020B8
:103740001949088019480088B0F5004F02DD0020B3
:103750001649088016480088B0F5004F02DD0020A9
:103760001349088013480088B0F5004F02DD00209F
:1037700010490880104800880F4908804FF08040A9
:1037800000F04CF90D4908800846008844F2506268
:10379000104481B2900600F016FA10BD4B000020D4
:1037A0004C0000204A0000203E0000204000002085
:1037B0004200002044000020460000203C00002081
:1037C00010B5002401210846FFF750FB1C201F49BB
:1037D00008700320487088700120C8700846FFF701
:1037E00043F91B4800681B49B0FBF1F0401E84B24E
:1037F0004FF6FF701849888000200880C8804880F4
:103800004FF0804000F010FA01222146900700F0AE
:10381000D7F90020114908800120488044F2506007
:10382000C880002008814FF0804000F06BF9002133
:103830004FF0804000F0BBF901220221480700F060
:1038400057F90121880700F0DDF810BD380000208D
:1038500054000020808D5B00C8000020D2000020B2
:1038600010B501215E4800F0DCF8F8B15D48007841
:1038700000F08000D0B15B48007820F0100059497A
:1038800008700846007800F00F0020B9084600785C
:1038900040F0400008705348007800F00F000E28F8
:1038A00005DA50480078401C4E4908700AE04D483F
:1038B000007820F080004B4908700846007800F03E
:1038C000F00008700221464800F0ABF8002810D044
:1038D0004548006870B10221414800F05FF90021BD
:1038E0003F4800F072F93F48007840F010003D4931
:1038F000087070E03A4800F091F83C4908800021D7
:10390000374800F04BF93748007800F010000028E5
:103910005BD03448007800F08000E8B3334800887A
:10392000B0F5967F0DDD31480088B0F5487F08DAA4
:103930002F48006840002E4908600846006808606B
:1039400043E02A480088B0F5AF6F0FDD27480088B4
:10395000B0F5E16F0ADA26480068400024490860A3
:103960000846006840F0010008602EE01F4800880B
:1039700040F69801884228DD1C48008840F628213E
:10398000884222DA1B480078401C1A490870154802
:10399000007800F0F00000E002E01249087014E046
:1039A0001248008841F2680188420EDD0F48008805
:1039B00041F25C21884208DA0A48007840F0800031
:1039C0000849087000200B4908700648007820F06C
:1039D0001000044908700321014800F00DF810BDE3
:1039E000000C004088000020000121428A000020D5
:1039F0008C00002089000020CA4302827047CA431D
:103A00000282704721B1028842F00102028004E084
:103A100002884FF6FE731A40028070470146888E76
:103A2000704730B50246002000230024158A05EABD
:103A30000103958905EA010413B10CB1012000E0EE
:103A4000002030BD70B505460C46244885420ED096
:103A5000234885420BD0B5F1804F08D021488542DC
:103A600005D02148854202D02048854200D100E09F
:103A700000BF208850B92389A28861882846FFF7B3
:103A8000FFFCE188284600F0A2F825E02088042801
:103A90000AD12389A28861882846FFF731FDE18891
:103AA000284600F09DF817E0208808280AD12389CD
:103AB000A28861882846FFF76FFDE188284600F05C
:103AC0009CF809E02389A28861882846FFF7ACFDAD
:103AD000E188284600F09AF870BD0000002C0140F3
:103AE000003401400004004000080040000C004089
:103AF0001AB183890B43838102E083898B438381DD
:103B00007047000070B5002400220023058C4FF69A
:103B1000FE7635400584028C8388048B4FF68F75C2
:103B20002C40B51E2C400D882C43751E2A400D8953
:103B30002A434D882A43144DA8420BD0134DA84266
:103B400008D0134DA84205D0124DA84202D0124D04
:103B5000A84213D14FF6F7752A404D892A434FF6F4
:103B6000FB752A408D882A434FF6FF652B404FF6A0
:103B7000FF552B408D892B43CD892B4383800483B4
:103B8000CD888586028470BD002C01400034014040
:103B90000040014000440140004801400A46002125
:103BA000018C4FF6FD7319401143018470470A469A
:103BB0000021018B4FF6F7731940114301837047C1
:103BC0000185828270478186704781847047028BAD
:103BD0004FF6F3731A400283028B0A430283704745
:103BE000028B4FF2FF331A400283028B4FF6FF73B2
:103BF00003EA01231A4302837047828B4FF6F37363
:103C00001A408283828B0A4382837047828B4FF2F1
:103C1000FF331A408283828B4FF6FF7303EA01233E
:103C20001A43828370470000002202881D4B98428D
:103C30000ED01D4B98420BD0B0F1804F08D01B4BDB
:103C4000984205D01A4B984202D01A4B984204D1A0
:103C50004FF68F731A404B881A43174B984207D080
:103C6000164B984204D04FF6FF431A40CB881A43B4
:103C700002808B8883850B8803850A4B98420BD082
:103C8000094B984208D00E4B984205D00D4B9842F4
:103C900002D00D4B984201D10B7A03860123838217
:103CA00070470000002C0140003401400004004037
:103CB00000080040000C00400010004000140040CC
:103CC000004001400044014000480140FCB5064668
:103CD0000027002509E00DEB05017019FDF7D2F969
:103CE00008B90020FCBD681CC5B2072DF3DB9DF8A8
:103CF0000000132805D09DF80000142801D00020F2
:103D0000F0E79DF801009DF8001001EBC10202EB05
:103D1000011100EB8104E11704EB91718910A4EB10
:103D2000810179B9642094FBF0F100FB114008B1E6
:103D3000012707E04FF4C87094FBF0F100FB11403D
:103D400000B901279DF802000C2802DC9DF8020052
:103D500008B90020C6E79DF8030008B90020C1E7B4
:103D60004FB19DF803009DF80210124A515C884241
:103D70000BDD0020B6E79DF803009DF802100E4A07
:103D8000515C884201DD0020ACE79DF80400182852
:103D900001DB0020A6E79DF805003C2801DB0020A0
:103DA000A0E79DF806003C2801DB00209AE70120EF
:103DB00098E70000DC710008CF71000810B540F2F0
:103DC00025510F4800F042F9C0B101200D4908709B
:103DD00000200D4908700A4800F0F4F90B490C4A1C
:103DE000128888540A480088401C094908800846FF
:103DF0000088B0F5807F01DD0020088010BD000044
:103E0000004C00404B0000204C000020E20000204D
:103E10004800002010B586B004462B48008840F4C6
:103E20008070294908800846008840F020000880FA
:103E30004FF4A063342202210320FEF7D9FD0121B3
:103E4000C804FFF713F801211020FFF72FF81E48D0
:103E50000C3800F0ADF84FF48060ADF8140003208A
:103E60008DF8160018208DF8170005A91748FDF7E2
:103E7000C3FA4FF40060ADF8140004208DF8170069
:103E800005A91248FDF7B8FA01940020ADF8080022
:103E9000ADF80A00ADF80C00ADF810000C20ADF83C
:103EA0000E0001A908480C3800F020F9012240F268
:103EB000255105480C3800F0F3F8012102480C3870
:103EC00000F06AF806B010BD0C4C00400010014034
:103ED00010B5044600BF0548008800F040000028E7
:103EE000F9D02146014800F072F910BD004C0040A5
:103EF00070B504460D4603E02078FFF7E9FF641C27
:103F0000281EA5F10101CDB2F6D170BD10B586B065
:103F10000446012144F20400FEF7C8FF1C4800F0EB
:103F200047F84FF40070ADF8140003208DF8160028
:103F300018208DF8170005A91648FDF75DFA4FF413
:103F40008060ADF8140004208DF8170005A9114811
:103F5000FDF752FA01940020ADF80800ADF80A0010
:103F6000ADF80C00ADF810000C20ADF80E0001A962
:103F7000074800F0BBF8012240F22551044800F048
:103F80008FF80121024800F007F806B010BD0000CC
:103F9000003801400008014021B1828942F40052FA
:103FA000828104E082894DF6FF731A408281704756
:103FB00010B504462048844209D101218803FEF748
:103FC00085FF00214FF48040FEF780FF32E01B4860
:103FD000844209D101214804FEF758FF00214FF423
:103FE0000030FEF753FF25E01548844209D1012136
:103FF0008804FEF74BFF00214FF48020FEF746FFB8
:1040000018E01048844209D10121C804FEF73EFFA0
:1040100000214FF40020FEF739FF0BE00A488442EC
:1040200008D101210805FEF731FF00214FF480106F
:10403000FEF72CFF10BD0000003801400044004096
:1040400000480040004C00400050004070B502465F
:10405000002400230025002040F66A16B14200D15A
:1040600000BFC1F3421501F01F03012606FA03F356
:10407000012D02D19689334006E0022D02D1168A25
:10408000334001E0968A33400C12012606FA04F40C
:104090001688344013B10CB1012000E0002070BD3F
:1040A000F0B50346002400260025002040F66A17DC
:1040B000B94200D100BF1846C1F3421401F01F06F7
:1040C000012707FA06F5012C01D10C3004E0022C7F
:1040D00001D1103000E014301AB107682F43076097
:1040E00002E00768AF430760F0BD00002DE9F0472C
:1040F00086B005460E460024A24600BFA146002712
:10410000B08900B100BF2F462C8A4CF6FF700440E6
:10411000F08804432C82AC894EF6F3100440B0883A
:1041200031890843718908430443AC81AC8A4FF656
:10413000FF400440B0890443AC8201A8FEF7D6FEDC
:104140001F48874202D1DDF810A001E0DDF80CA085
:10415000A88900F4004040B10AEBCA0000EB0A1045
:1041600031684900B0FBF1F807E00AEBCA0000EB48
:104170000A1031688900B0FBF1F86420B8FBF0F058
:1041800004012009642101FB1089A88900F4004082
:1041900040B1322000EBC900B0FBF1F000F00700A5
:1041A000044308E0322000EB09106421B0FBF1F079
:1041B00000F00F0004432C8106B0BDE8F08700003A
:1041C0000038014001468888C0F308007047C1F3F9
:1041D0000802828070470000F0B5A7B005460026AF
:1041E0000024A7A12846FCF73DF968B10621A6A046
:1041F000FDF712F8002803DAA5A0FCF711F83DE15D
:10420000A8A0FCF70DF839E1A9A12846FCF72AF986
:104210000028F4D0A8A12846FCF724F900287DD076
:10422000802107A8FCF7BEF9A9A12846FCF71AF9D6
:10423000002878D0A9A0FBF7F3FFABA1284600F037
:1042400003FA06463246AAA107A8FBF7F5FF07A81E
:10425000FCF71AF9C7B2394607A8FCF7DDFF0028BA
:1042600002DAADA0FBF7DCFFB048C07800F00F0029
:10427000AE49C9780911AD4A927802F00F02AB4BF2
:104280009B781B11CDE90232CDE90410A748407894
:1042900000F00F00A54949780911CDE90010A348A5
:1042A000007800F00F03A14800780211A0A1A548F2
:1042B000FBF7C2FF9D48807900F00F009B49897988
:1042C00009119A4A527902F00F02984B5B791B113F
:1042D000CDE90032CDE902109448007900F00F03D7
:1042E00092480079021198A196480B30FBF7A4FF81
:1042F0009448012398A200909948017899A0FEF76C
:1043000011FF10B199A0FBF78BFF9E4800780128A0
:1043100002D00120FEF78AFD012001E083E002E0E7
:1043200098490870AAE098A12846FCF79BF8002855
:10433000F8D098A0FBF774FF0020994908609949CC
:10434000C1F888018F49087008460078FEF76EFDB5
:1043500065A1284600F078F90646324692A107A8E2
:10436000FBF76AFF07A8FCF78FF8C7B2394607A822
:10437000FCF752FF002802DA67A0FBF751FF6B48F9
:10438000C07800F00F016948C0780011674A927840
:1043900002F00F02654B9B781B11CDE90232CDE98B
:1043A00004016248407800F00F0060494978091123
:1043B000CDE900105D48007800F00F035B480078FD
:1043C00002115BA15F48FBF737FF5848807900F086
:1043D0000F025648807901115448407900F00F00CF
:1043E000524B5B791B11CDE90030CDE902124F48E9
:1043F000007900F00F034D480079021152A1514895
:104400000B30FBF719FF4F4800905E48037852A22B
:104410005348017853A0FEF785FE00282ED053A004
:10442000FBF7FEFE2AE06AA12846FCF71BF880B1E4
:10443000802107A8FCF7B6F86CA1284600F044F9E3
:10444000044660B26B49087021466BA0FBF7E8FE9A
:1044500014E06FA12846FCF705F878B1802107A881
:10446000FCF7A0F861A1284600F02EF9044660B2DE
:104470006E49087021466EA0FBF7D2FE27B0F0BD52
:1044800024234154230D0000244F4B23230D00000F
:10449000B7A2CBCDD0C4CCF8B0FCCAA7B0DCA3A1E6
:1044A0000D0A0000D0C4CCF8B0FCA3A10D0A000096
:1044B0002274223A3500000022617069746167221B
:1044C0003A22706F7765724374726C2200000000AC
:1044D0002264617461223A3100000000BFAABBFA75
:1044E000A3A10D0A00000000636D64696400000070
:1044F0007B2274223A362C22636D646964223A2549
:10450000732C22737461747573223A302C226461A7
:104510007461223A317D0000B7A2CBCDCFECD3A697
:10452000CAA7B0DCA3A10D0A00000000060000200D
:1045300025642564256425642D256425642D256462
:104540002564200094000020256425643A25642514
:10455000643A256425640000706F7765720000007E
:1045600027000020616C61726D000000B7A2CBCD06
:10457000BFAA2FB9D8BBFAD7B4CCACCAA7B0DCA3BA
:10458000A10D0A00050000202264617461223A3006
:1045900000000000B9D8BBFAA3A10D0A000000007A
:1045A0008C012242000022427B2274223A362C22C5
:1045B000636D646964223A25732C22737461747587
:1045C00073223A302C2264617461223A307D0000FB
:1045D00022617069746167223A2275707065724C4D
:1045E000696D69744374726C2200000064617461C7
:1045F0000000000000000020C9E8D6C3C9CFCFDE0C
:10460000D6B5A3BA2564A3A1A1E60D0A0000000057
:1046100022617069746167223A226C6F7765724C0F
:10462000696D69744374726C2200000001000020FF
:10463000C9E8D6C3CFC2CFDED6B5A3BA2564A3A13D
:10464000A1E60D0A000000002DE9F04107460E46E4
:104650000024002580211948FBF782FF324618A16B
:104660001648FBF7E9FD15493846FBF7FBFE044603
:1046700014B90020BDE8F0811048FBF705FF45B2F2
:104680002C4480210D48FBF76BFF00250DE02078BE
:10469000392806DC2078302803DB20780749485584
:1046A00000E004E0681C45B2641C0A2DEFDB00BF8B
:1046B0000021024A681C11541046DBE7B4000020B8
:1046C000222573223A0000002DE9F04780460E466D
:1046D0000024A1460027002580213548FBF740FF34
:1046E000324634A13248FBF7A7FD31494046FBF77B
:1046F000B9FE044614B90020BDE8F0872C48FBF74A
:10470000C3FE45B22C4480212948FBF729FF002530
:104710000DE02078392806DC2078302803DB20786B
:104720002349485500E004E0681C45B2641C0A2D8A
:10473000EFDB00BF00211E4A681C11541046FBF736
:10474000A3FE00F0FF09B9F1010F06D0B9F1020F85
:1047500008D0B9F1030F26D110E0154800783038A1
:10476000C7B221E012484078303811490978303911
:1047700001EB810100EB4100C7B215E00C488078E5
:1047800030380B490978303901EBC10202EB0111D5
:1047900000EB810106484078303800EB800001EBE7
:1047A0004000C7B200E000BF00BF3846A4E70000E9
:1047B000BE000020222573223A22000002A0FBF74F
:1047C0002FFD00BFFEE700000D0A557361676546C7
:1047D00061756C745F48616E646C657220455252FD
:1047E0004F520D0A000000002DE9F05F04460D460F
:1047F00016469946092C70D2DFE804F005708192C4
:10480000A9C0D7F0EE000423CB4A00210846FDF7EB
:1048100019FD0423C94A00210220FDF713FD0223DC
:10482000C74A00210420FDF70DFD3122202104207C
:10483000FDF7D6FD3A2220210420FDF7D1FDC14A23
:1048400050210020FDF7F2FCBE4A50210220FDF766
:10485000EDFCBC4A48210420FDF7E8FC484601F085
:1048600089FA834601F05AFA21F00041074601F027
:1048700021F8C0B20A2190FBF1F0303000F0FF0ABD
:10488000524638210420FDF7ABFD484601F072FA8C
:10489000834601F043FA21F00041074601F00AF88F
:1048A000C0B20A2190FBF1F201FB1200303000F09F
:1048B000FF0A524640210420FDF792FDB9F1000F96
:1048C00005DB202230210420FDF78AFD04E02D22A3
:1048D00030210420FDF784FDB1E0ADE09AA2002173
:1048E0000420FDF7AFFD98A200210620FDF7AAFDE8
:1048F0000523994A18210620FDF7A4FC9FE092A207
:1049000000210420FDF79EFD8FA200210620FDF767
:1049100099FD0523914A18210620FDF793FC8EE0AE
:1049200089A200210420FDF78DFD87A20021062029
:10493000FDF788FD02238A4A18210620FDF782FC34
:104940000123884A38210620FDF77CFC77E07EA20F
:1049500000210420FDF776FD7BA200210620FDF753
:1049600071FD02237E4A18210620FDF76BFC01230E
:104970007D4A38210620FDF765FC60E072A2002127
:104980000420FDF75FFD70A200210620FDF75AFD0F
:104990000223734A18210620FDF754FC0123734AB1
:1049A00038210620FDF74EFC49E067A200210420D3
:1049B000FDF748FD64A200210620FDF743FD022318
:1049C000674A18210620FDF73DFC0123684A38217B
:1049D0000620FDF737FC32E017E0FFE75AA200217E
:1049E0000420FDF72FFD58A200210620FDF72AFD27
:1049F00002235B4A18210620FDF724FC01235D4AAF
:104A000038210620FDF71EFC19E04FA200210420EA
:104A1000FDF718FD4CA200210620FDF713FD02232F
:104A20004F4A18210620FDF70DFC0123524A382178
:104A30000620FDF707FC02E0FDF7F8F900BF00BF14
:104A4000284601F097F9834601F068F921F000410A
:104A5000074600F02FFFC0B20A2190FBF1F0303082
:104A600000F0FF0A524640210020FDF7B9FC28461D
:104A700001F080F9834601F051F921F00041074629
:104A800000F018FFC0B20A2190FBF1F201FB120006
:104A9000303000F0FF0A524648210020FDF7A0FC0C
:104AA000002D05DB202238210020FDF799FC04E0D1
:104AB0002D2238210020FDF793FC304601F05AF9F1
:104AC000834601F02BF921F00041074600F0F2FE89
:104AD000C0B20A2190FBF1F0303000F0FF0A5246DC
:104AE00040210220FDF77CFC304601F043F983466B
:104AF00001F014F921F00041074600F0DBFEC0B2DE
:104B00000A2190FBF1F201FB1200303000F0FF0AA5
:104B1000524648210220FDF763FC002E05DB2022CF
:104B200038210220FDF75CFC04E02D223821022010
:104B3000FDF756FCBDE8F09F9A6300081A64000870
:104B40009A640008DA640008202020202020202019
:104B50002020202020202000FA6400089A65000808
:104B60003A6600087A6600089A660008BA66000885
:104B7000DA660008FA6600081A67000870B505468C
:104B80000E461446142C02D12878401C2870307828
:104B90002978884219D03078022808D1287803284B
:104BA00005D1072301228649864800F0A9F930780B
:104BB000082808D12878092805D10723002281492F
:104BC0007F4800F09DF9287830702878092821DB8B
:104BD0007D4890F900007D4991F90010884204DA7F
:104BE000012028707A49087014E07648FFF76EF8C3
:104BF000012805D00320287002207549087009E0BB
:104C00007048FEF76BF873A0FBF70AFBFDF70EF98F
:104C1000002028702878012819D1052C0AD16A486B
:104C200090F90000632805DA67480078401C40B21C
:104C3000654908700F2C0AD1634890F900000028DC
:104C400005DD61480078401E40B25F490870287851
:104C5000022819D1052C0AD15C4890F9000063287C
:104C600005DA5A480078401C40B2584908700F2CA9
:104C70000AD1564890F90000002805DD5348007815
:104C8000401E40B251490870287809287CD2DFE8DC
:104C900000F0050607081F364D647C008DE08CE0AF
:104CA0008BE0052C08D146484078632804DA444854
:104CB0004078401C424948700F2C08D14048407849
:104CC000002804DD3E484078401E3D49487074E0AD
:104CD000052C08D13A4880780C2804DA38488078C6
:104CE000401C374988700F2C08D13548807801283E
:104CF00004DD33488078401E314988705DE0052C22
:104D000008D12F48C0781F2804DA2D48C078401CED
:104D10002B49C8700F2C08D12948C078012804DD20
:104D20002748C078401E2649C87046E0052C08D1A7
:104D300023480079172804DA21480079401C2049CB
:104D400008710F2C08D11E480079002804DD1C488A
:104D50000079401E1A4908712FE0052C08D1184827
:104D600040793B2804DA16484079401C14494871C0
:104D70000F2C08D112484079002804DD10484079F2
:104D8000401E0F49487118E016E0052C08D10C4868
:104D900080793B2804DA0A488079401C08498871E8
:104DA0000F2C08D106488079002804DD044880795A
:104DB000401E0349887100E000BF00BF70BD0000C5
:104DC0000D0000200600002000000020010000204F
:104DD00004000020C9E8D6C3D5FDC8B7A3ACBDF810
:104DE000C8EBD5FDB3A3B9A4D7F7D7B4CCAC2CB2DC
:104DF000A2D0B4C8EBD0C2B5C4525443CAB1BCE4CB
:104E00000D0A000030380A2801D201207047002026
:104E10007047014600BF70472DE9F14F84B0002074
:104E200003900290049800F072FD06464FF066323F
:104E3000134B00F07FFD044600F00AFB039003983B
:104E400000F06CFF80464FF066320E4B00F070FEB3
:104E500000220D4BCDE9000100F0D4FB04460D46C5
:104E6000039800F05BFF064622462B4600F0CAFB83
:104E7000824600F01FFD0290029805B0BDE8F08F59
:104E800066668A3F66660A400088C34070B502467F
:104E900000210023002400BF29E08B2901D17820C4
:104EA00070BD31B915480068904202D26FF013000E
:104EB000F6E7124850F82100904216D30F4D481CD7
:104EC00055F82000904210D8284650F82150064648
:104ED000481C56F8200028444408A24201D34BB293
:104EE00001E0481C43B24BB203E0481CC1B28C291C
:104EF000D3DB00BFA3F1140040B2D1E7946F0008E8
:104F0000F0B504460D4612B1012A2BD117E000215D
:104F100012E020780A2690FBF6F000F00F062078C9
:104F20000A2790FBF7FC07FB1C0066F31F10287094
:104F3000641C6D1C481CC1B29942EADB13E00021DD
:104F40000DE0207800F00F002678360906EB860683
:104F500000EB46002870641C6D1C481CC1B29942CD
:104F6000EFDB00E000BF00BF0120F0BD0648006895
:104F700040F08070044908600448006840F0010077
:104F80000249086070470000FCED00E0001000E0FE
:104F900030B501460E4C62680E4C24680E4DB4FBD1
:104FA000F5F404FB01F3D018904205D900BF084C7A
:104FB00064688442FBD309E000BF054C6468844206
:104FC000FBD800BF024C64688442FBD330BD0000B4
:104FD000001000E05400002040420F0000BF054ACE
:104FE000128802F04002002AF9D0C2B2014B1B1D08
:104FF0001A80704700380140F8B5044621466846DB
:10500000FDF7A6FE9DF80000FFF706FF06463046B6
:10501000FFF73CFF05462846F8BD00002DE9F041AA
:1050200004460D4645EA042600201C4908601C4938
:10503000C1F8940100271CE000201849091D0860F0
:1050400006F4004018B101201649086002E0002073
:10505000144908600120FFF79BFF01200F49091D3B
:105060000860FFF795FF4FF6FF7000EA4606781CD0
:10507000C7B2102FE0DB00200849091D086001209D
:105080000749C1F89001FFF783FF0120FFF780FF78
:10509000002002490860BDE8F08100009001224232
:1050A000000022428081214208B5482002230822C4
:1050B0000A4900900420FEF70DF94820022304223B
:1050C000064900901046FEF705F9482002231A46CB
:1050D000024900900420FEF7FDF808BD00080140D9
:1050E000192119480068012800D005211648001F21
:1050F0000068012800D00F211348083800680128F3
:1051000000D01421192906D1104801700020104A3E
:105110001070192070470D480078884206D00B485F
:10512000017000200A4A10701920F3E7084800783F
:10513000052801DD0846EDE705480078401C044AD3
:1051400010701920E6E700000C0121423500002014
:105150003400002070B515480078401C13490870D1
:1051600008460078072801DD002008700F48007805
:1051700000F007000D4908700D480978445C04F000
:105180007F001D2800DD1D2404F07F0009490D5C0F
:1051900004F0800008B125F080050749034A127821
:1051A000885C2946FFF73AFF70BD00007C000020B4
:1051B0007D0000206A6F00088A6F000810B54FF468
:1051C000A060FDF789FCFFF7D1FE4FF4E130FEF758
:1051D0009DFE4FF4E130FEF71DFEFBF773FCFEF77A
:1051E000EFFA4FF4FA73322201210846FCF7C4F9B2
:1051F00000F018F800F0B2F8002010BD30B5002320
:1052000008E0C45C064D6C545C1CE3B24C1CE1B27B
:10521000541EE2B2082901DA002AF2D130BD0000A2
:105220007D00002038B50024082200213548FFF712
:10523000E5FF35A0FAF7F4FFFCF76AFFFCF7F6FD8F
:10524000FCF7C2FBFCF762FAFFF72EFF10200123E8
:10525000082234490090FEF73DF810200123042273
:1052600030490090FEF736F8FCF75CF900202E4933
:1052700008602E49C1F888010A2407E0FDF79AFC6E
:10528000012803D042F21070FFF782FE201EA4F125
:105290000101CCB2F2D1FCF73BFF2548FCF708FE38
:1052A0000623244A10211846FCF7CCFF2248FFF7BA
:1052B0006FFEFCF7BBFD0523204A18210220FCF7F6
:1052C000C1FF1FA214210420FDF7BCF81A48FFF704
:1052D0005FFEFCF7ABFD1D2208210A48FBF738F9F9
:1052E000082200210748FFF789FFFDF78DFE002007
:1052F0001649088016490880164908801649088012
:1053000038BD000014000020BFD5B5F7BFD8D6C601
:10531000CFB5CDB32D5630332D3138303332370D34
:105320000A000000001001408C01224200002242CD
:105330003A5E0008DA62000840420F003A62000854
:105340004E65776C616E6420456475003E000020F8
:1053500040000020420000204400002000240025DE
:1053600000BFFBF7DFFC05464DE02846FBF7BCFB22
:1053700040B125A0FAF754FFFCF758FD002026495C
:105380000870EEE7FCF7F8FC04464CB1214623A078
:10539000FAF746FF6423322201210846FCF7ECF8B5
:1053A0002046FCF713FC25480078012800D02AE0AD
:1053B00023480088A62804DBFCF7CEFD0020204906
:1053C00008802048008821280CDBFDF743FB1248A9
:1053D000007810B9FBF718FA01E0FCF74BFD00204C
:1053E0001849088018480088022804DBFCF7F4FC00
:1053F0000020154908800848007818B9134800783B
:10540000FBF7F0FA00BFB0E7D6D8C1ACD4C6C6BD32
:10541000CCA8A3A10D0A000002000020BAECCDE246
:10542000D2A3BFD8C6F7BCFCD6B5C2EB203D202521
:105430006428CAAEBDF8D6C6290D0A0005000020B2
:105440003E000020400000204200002027000020F5
:1054500021F00042A2F16052B2F5801F01F000433A
:1054600028BFD2F17F6C0BD95FEA001C43EAC2026D
:1054700042EB507018BF704728BF20F00100704702
:10548000B2F5801FBCBF184670474FEA410C1CF5AF
:10549000001F02D2084600F0CBBC70B500F0F4FA51
:1054A00000000089FFF7F6BF4FF00040A0F5800034
:1054B0007047000010B591EA030F48BF83F0004326
:1054C00000F14A83841A71EB030C05D2121943EBE5
:1054D0000C03001B61EB0C01DFF824E14FEA1154CF
:1054E000A4EB135C1EEA430F18BF9EEA445F73D01F
:1054F00023EA0E03DCF1200E21EA045143F4801369
:1055000032D322FA0CFE10EB0E0023FA0CFE41EB14
:105510000E01CCF1200E03FA0EFE10EB0E0051F13D
:105520000001B1F5801FCCF1200E32D201EB045105
:1055300012FA0EF2BDE8104058BF7047401C38BF49
:105540005FEA420218BF7047002814BF20F0010034
:1055500041F100014FEA410313F5001F38BF7047C6
:10556000A1F1C04100F0DEBA012A43EB0302ACF125
:10557000200CDCF11F0E32BF4FF0000E23FA0CF3AB
:1055800010EB030041EB0451B4EB115FD0D0A1EB61
:10559000045101F5801149085FEA300001EB045124
:1055A0000ED350F1000038BF12FA0EFE08D1BDE84C
:1055B0001040C9E7401C38BF5FEA4202CAD1C3E7C6
:1055C000BDE810404FEA410313F5001F38BF704794
:1055D000A1F1C04100F0A6BA9EEA445F08D011EAEA
:1055E0005E0FBDE8104004BF01F00041002070478D
:1055F000BDE8104070B500F047FA00BF64FBBE3E46
:105600000000E0FF2DE9C04130B4DFF8A0C23CEA61
:10561000111418BF3CEA131400F0EC8081EA030572
:105620001CEA111444EAD57418BF1CEA131500F0E3
:10563000C780A4EB05044FF0004545EAC12145EAC7
:10564000C32341EA505143EA525304F17F74994213
:1056500004F500344FEAC0204FEAC22208BF90424E
:1056600000F09C804FEA13650FF24016765D4FEA1A
:10567000134506FB05F7C7F1807706FB07F74FEAEE
:10568000D737A7FB03687642C8F58038A7FB06CE5C
:1056900038BFA8F1010807FB08E64FF0000EA6FB93
:1056A000028CE6FB03CEDCF1000CCEF1004E38BFDD
:1056B000AEF1010EA6FB0C584FF000074FF00005AD
:1056C000E6FB0E87A1FB08C6A0FB07CE16EB0E0675
:1056D00045F10005E1FB076515F1E04E7EBFA4F53D
:1056E00080345FEA46066D4116F1800745F10005FA
:1056F0004FEA17274FEA066647EA0567A6F1DE4636
:10570000B6F1805F4FEA15251FD9384624F0010C09
:1057100005EBC471BCF1FE6F01EB0C1102D8F0BCBB
:10572000BDE8008124425CBF01F5801E9EEAC47F73
:1057300002D4F0BCBDE80081244238D4F0BCA1F111
:10574000C041BDE8004100F0EDB94FEAD22242EA83
:1057500043524FEAD323A7FB02864FEAD02040EA08
:10576000415007FB03661EEA0E0F4FEAD12105FBED
:10577000026658BFA6EB0056B6EB00564FEA520E33
:105780004EEAC37E18EB0E0E56EB530EBDD518EB4A
:1057900002085E417F1C55F10005B6E74FF4801505
:1057A0004FF000074FF000064FF00008ADE7F0BCE7
:1057B0004FF0000001F1C04101F00041BDE800815F
:1057C00011EA0C1F0CEA131500D00CE013EA0C1FB1
:1057D00000F025804FF00000F0BC81EA030101F0E9
:1057E0000041BDE80081F0BCBDE8004181EA030151
:1057F00000F098B9F0BCBDE8004170B500F044F984
:10580000097EFC3E00F007B881EA03014FF000007A
:1058100001F00041704781EA030100F083B9F0BC58
:10582000BDE800414FF0000021497047FFFDFBF942
:10583000F7F5F4F2F0EEEDEBE9E8E6E4E3E1E0DEC3
:10584000DDDBDAD8D7D5D4D3D1D0CFCDCCCBCAC835
:10585000C7C6C5C4C2C1C0BFBEBDBCBBBAB9B8B75C
:10586000B6B5B4B3B2B1B0AFAEADACABAAA9A8A84F
:10587000A7A6A5A4A3A3A2A1A09F9F9E9D9C9C9B1D
:105880009A999998979796959594939392919190C8
:105890008F8F8E8E8D8C8C8B8B8A89898888878759
:1058A0008685858484838382828181800000FF07CE
:1058B0000000F87F4FEA1153A3F58063D3F11E0374
:1058C000A8BFD3F1200C08DB4FF0004242EAC1220E
:1058D00052EA505232FA03F0704709420BD4102BAF
:1058E000C4BF0020704703F5787CBCF1FF3F05D0B2
:1058F0004FF0FF3070474FF00000704770B500F078
:10590000C3F800BF4992248000207047F0E7B0FA46
:1059100080F310FA03F10AD0C3F11D0303F580638D
:105920004FEA41504FEA035202EBD12170474FF04A
:1059300000007047DFF848C170B51CEA111E1EBF99
:105940001CEA13159EEA0C0F95EA0C0F00F06F800D
:1059500081EA030423EA4C134EEAD47E21EA4C1177
:1059600041F4801143F48013AE44A1FB024CA0FB30
:105970000365AEF17F7E361955EB0C05A1FB034C98
:105980004CF10003A0FB021C16EB0C06654153F121
:105990000003094218BF46F0010613F4007F0BD143
:1059A0004FEA03314FEA0530340341EA155140EA2A
:1059B00016506FF003020AE04FEAC3214FEAC520F8
:1059C000F40241EA555140EA56506FF0020202EBF0
:1059D0002E4201EB025585EACE710AD05FEA440CF3
:1059E00018BF24F0004450F1000041F1000120EA0A
:1059F000D47040F2FE7C624500D270BDA84214BF54
:105A00004FF080444FF04044002E08BF0024BEF108
:105A1000806FA8BFA1F1C041BDE8704080F28280D4
:105A20004FF0000001F1C04101F0004170479EEAD3
:105A30000C0F0CEA131518BF95EA0C0F06D04FF0A7
:105A4000000081EA030E0EF0004170BD00F01CF86A
:105A50008900013E00F007B800F009B84FEA430C96
:105A60005FEA5C5C08D081EA030100F05BB84FEAB2
:105A7000410C5FEA5C5CF6D14FF0000001497047D1
:105A80000000FF070000F87F0EF1020E2EF0030E5B
:105A90005EF8046B364205D4012A43EB030515F585
:105AA000001F12D8012841EB010C1CF5001F0CD877
:105AB0000ED14FEAD17C15F5001F0CEB4C0C0CF10C
:105AC000020C08BF4CEBD37C04E04FF0080C01E063
:105AD0004FEAD37C0CEB4C0526FA05F606F00706D8
